{
  "transactions": [
    {
      "hash": "0x7f3166666f721d2101815aa616aa0b2d7fb412ab67c92dae35c67a406f9f5213",
      "transactionType": "CALL",
      "contractName": "Proxy",
      "contractAddress": "0x4200000000000000000000000000000000000020",
      "function": "register(string,address,bool):(bytes32)",
      "arguments": [
        "address aTestAddy, address anotherTestAddy",
        "0x0000000000000000000000000000000000000000",
        "true"
      ],
      "transaction": {
        "type": "0x02",
        "from": "0x3df822003c1b974fab42db7cb4da929afede4613",
        "to": "0x4200000000000000000000000000000000000020",
        "gas": "0x32901",
        "value": "0x0",
        "data": "0x60d7a278000000000000000000000000000000000000000000000000000000000000006000000000000000000000000000000000000000000000000000000000000000000000000000000000000000000000000000000000000000000000000000000001000000000000000000000000000000000000000000000000000000000000002a61646472657373206154657374416464792c206164647265737320616e6f74686572546573744164647900000000000000000000000000000000000000000000",
        "nonce": "0x15",
        "accessList": []
      },
      "additionalContracts": [],
      "isFixedGasLimit": false
    }
  ],
  "receipts": [
    {
      "transactionHash": "0x7f3166666f721d2101815aa616aa0b2d7fb412ab67c92dae35c67a406f9f5213",
      "transactionIndex": "0x1",
      "blockHash": "0x68b784900155127ea7872f6c838c0a33b3a6d6f05b7d9a2db1e6d2f1aa35eea2",
      "blockNumber": "0xc60297",
      "from": "0x3df822003C1B974fAB42dB7CB4Da929AFede4613",
      "to": "0x4200000000000000000000000000000000000020",
      "cumulativeGasUsed": "0x2ee40",
      "gasUsed": "0x2292b",
      "contractAddress": null,
      "logs": [
        {
          "address": "0x4200000000000000000000000000000000000020",
          "topics": [
            "0x7d917fcbc9a29a9705ff9936ffa599500e4fd902e4486bae317414fe967b307c",
            "0x8e7586c347f09716bfc8b13f2912d100ecd2d8ede26f4bbd0aaf88bf1c3b457d"
          ],
          "data": "0x0000000000000000000000003df822003c1b974fab42db7cb4da929afede4613",
          "blockHash": "0x68b784900155127ea7872f6c838c0a33b3a6d6f05b7d9a2db1e6d2f1aa35eea2",
          "blockNumber": "0xc60297",
          "transactionHash": "0x7f3166666f721d2101815aa616aa0b2d7fb412ab67c92dae35c67a406f9f5213",
          "transactionIndex": "0x1",
          "logIndex": "0x0",
          "removed": false
        }
      ],
      "status": "0x1",
      "logsBloom": "0x00000000000000000000000000000000000000800000000000000000000000000000000000000000000000000000000000000000000000000000000000000000000000000000000000000000000000000000000000000000000000000000000000000008000000000000100000000000000000000000000000000000000000000000000000000010000000000000000080000000000000000000000000000000000000040000000000000000000000000400000000000000000000000000000000000000000000010000000000200000000000000000000000000000000000000000000000000000000000000000000000000000000000000000000000000000",
      "type": "0x2",
      "effectiveGasPrice": "0xb2d05e32"
    }
  ],
  "libraries": [],
  "pending": [],
  "returns": {},
  "timestamp": 1691381655,
  "chain": 420,
  "multi": false,
  "commit": "4bb75d9"
}